{
  "_format": "hh-sol-artifact-1",
  "contractName": "LabellessTask",
  "sourceName": "contracts/Counter.sol",
  "abi": [
    {
      "inputs": [],
      "stateMutability": "nonpayable",
      "type": "constructor"
    },
    {
      "anonymous": false,
      "inputs": [
        {
          "indexed": true,
          "internalType": "address",
          "name": "owner",
          "type": "address"
        },
        {
          "indexed": true,
          "internalType": "address",
          "name": "approved",
          "type": "address"
        },
        {
          "indexed": true,
          "internalType": "uint256",
          "name": "tokenId",
          "type": "uint256"
        }
      ],
      "name": "Approval",
      "type": "event"
    },
    {
      "anonymous": false,
      "inputs": [
        {
          "indexed": true,
          "internalType": "address",
          "name": "owner",
          "type": "address"
        },
        {
          "indexed": true,
          "internalType": "address",
          "name": "operator",
          "type": "address"
        },
        {
          "indexed": false,
          "internalType": "bool",
          "name": "approved",
          "type": "bool"
        }
      ],
      "name": "ApprovalForAll",
      "type": "event"
    },
    {
      "anonymous": false,
      "inputs": [
        {
          "indexed": true,
          "internalType": "address",
          "name": "from",
          "type": "address"
        },
        {
          "indexed": true,
          "internalType": "address",
          "name": "to",
          "type": "address"
        },
        {
          "indexed": true,
          "internalType": "uint256",
          "name": "tokenId",
          "type": "uint256"
        }
      ],
      "name": "Transfer",
      "type": "event"
    },
    {
      "inputs": [
        {
          "internalType": "address",
          "name": "to",
          "type": "address"
        },
        {
          "internalType": "uint256",
          "name": "tokenId",
          "type": "uint256"
        }
      ],
      "name": "approve",
      "outputs": [],
      "stateMutability": "nonpayable",
      "type": "function"
    },
    {
      "inputs": [
        {
          "internalType": "address",
          "name": "owner",
          "type": "address"
        }
      ],
      "name": "balanceOf",
      "outputs": [
        {
          "internalType": "uint256",
          "name": "",
          "type": "uint256"
        }
      ],
      "stateMutability": "view",
      "type": "function"
    },
    {
      "inputs": [],
      "name": "baseURI",
      "outputs": [
        {
          "internalType": "string",
          "name": "",
          "type": "string"
        }
      ],
      "stateMutability": "view",
      "type": "function"
    },
    {
      "inputs": [
        {
          "internalType": "address",
          "name": "owner",
          "type": "address"
        },
        {
          "internalType": "string",
          "name": "taskDetailUri",
          "type": "string"
        },
        {
          "internalType": "string",
          "name": "name",
          "type": "string"
        }
      ],
      "name": "createTask",
      "outputs": [
        {
          "internalType": "uint256",
          "name": "",
          "type": "uint256"
        }
      ],
      "stateMutability": "nonpayable",
      "type": "function"
    },
    {
      "inputs": [
        {
          "internalType": "uint256",
          "name": "tokenId",
          "type": "uint256"
        }
      ],
      "name": "getApproved",
      "outputs": [
        {
          "internalType": "address",
          "name": "",
          "type": "address"
        }
      ],
      "stateMutability": "view",
      "type": "function"
    },
    {
      "inputs": [
        {
          "internalType": "address",
          "name": "owner",
          "type": "address"
        },
        {
          "internalType": "address",
          "name": "operator",
          "type": "address"
        }
      ],
      "name": "isApprovedForAll",
      "outputs": [
        {
          "internalType": "bool",
          "name": "",
          "type": "bool"
        }
      ],
      "stateMutability": "view",
      "type": "function"
    },
    {
      "inputs": [],
      "name": "name",
      "outputs": [
        {
          "internalType": "string",
          "name": "",
          "type": "string"
        }
      ],
      "stateMutability": "view",
      "type": "function"
    },
    {
      "inputs": [
        {
          "internalType": "uint256",
          "name": "tokenId",
          "type": "uint256"
        }
      ],
      "name": "ownerOf",
      "outputs": [
        {
          "internalType": "address",
          "name": "",
          "type": "address"
        }
      ],
      "stateMutability": "view",
      "type": "function"
    },
    {
      "inputs": [
        {
          "internalType": "address",
          "name": "owner",
          "type": "address"
        },
        {
          "internalType": "uint256",
          "name": "taskId",
          "type": "uint256"
        }
      ],
      "name": "rejectTask",
      "outputs": [],
      "stateMutability": "nonpayable",
      "type": "function"
    },
    {
      "inputs": [
        {
          "internalType": "address",
          "name": "owner",
          "type": "address"
        },
        {
          "internalType": "uint256",
          "name": "taskId",
          "type": "uint256"
        }
      ],
      "name": "reviewTask",
      "outputs": [],
      "stateMutability": "nonpayable",
      "type": "function"
    },
    {
      "inputs": [
        {
          "internalType": "address",
          "name": "from",
          "type": "address"
        },
        {
          "internalType": "address",
          "name": "to",
          "type": "address"
        },
        {
          "internalType": "uint256",
          "name": "tokenId",
          "type": "uint256"
        }
      ],
      "name": "safeTransferFrom",
      "outputs": [],
      "stateMutability": "nonpayable",
      "type": "function"
    },
    {
      "inputs": [
        {
          "internalType": "address",
          "name": "from",
          "type": "address"
        },
        {
          "internalType": "address",
          "name": "to",
          "type": "address"
        },
        {
          "internalType": "uint256",
          "name": "tokenId",
          "type": "uint256"
        },
        {
          "internalType": "bytes",
          "name": "_data",
          "type": "bytes"
        }
      ],
      "name": "safeTransferFrom",
      "outputs": [],
      "stateMutability": "nonpayable",
      "type": "function"
    },
    {
      "inputs": [
        {
          "internalType": "address",
          "name": "operator",
          "type": "address"
        },
        {
          "internalType": "bool",
          "name": "approved",
          "type": "bool"
        }
      ],
      "name": "setApprovalForAll",
      "outputs": [],
      "stateMutability": "nonpayable",
      "type": "function"
    },
    {
      "inputs": [
        {
          "internalType": "address",
          "name": "owner",
          "type": "address"
        },
        {
          "internalType": "uint256",
          "name": "taskId",
          "type": "uint256"
        },
        {
          "internalType": "string",
          "name": "resultUri",
          "type": "string"
        }
      ],
      "name": "submitTask",
      "outputs": [],
      "stateMutability": "nonpayable",
      "type": "function"
    },
    {
      "inputs": [
        {
          "internalType": "bytes4",
          "name": "interfaceId",
          "type": "bytes4"
        }
      ],
      "name": "supportsInterface",
      "outputs": [
        {
          "internalType": "bool",
          "name": "",
          "type": "bool"
        }
      ],
      "stateMutability": "view",
      "type": "function"
    },
    {
      "inputs": [],
      "name": "symbol",
      "outputs": [
        {
          "internalType": "string",
          "name": "",
          "type": "string"
        }
      ],
      "stateMutability": "view",
      "type": "function"
    },
    {
      "inputs": [
        {
          "internalType": "address",
          "name": "owner",
          "type": "address"
        },
        {
          "internalType": "uint256",
          "name": "taskId",
          "type": "uint256"
        }
      ],
      "name": "takeTask",
      "outputs": [],
      "stateMutability": "nonpayable",
      "type": "function"
    },
    {
      "inputs": [
        {
          "internalType": "uint256",
          "name": "index",
          "type": "uint256"
        }
      ],
      "name": "tokenByIndex",
      "outputs": [
        {
          "internalType": "uint256",
          "name": "",
          "type": "uint256"
        }
      ],
      "stateMutability": "view",
      "type": "function"
    },
    {
      "inputs": [
        {
          "internalType": "address",
          "name": "owner",
          "type": "address"
        },
        {
          "internalType": "uint256",
          "name": "index",
          "type": "uint256"
        }
      ],
      "name": "tokenOfOwnerByIndex",
      "outputs": [
        {
          "internalType": "uint256",
          "name": "",
          "type": "uint256"
        }
      ],
      "stateMutability": "view",
      "type": "function"
    },
    {
      "inputs": [
        {
          "internalType": "uint256",
          "name": "tokenId",
          "type": "uint256"
        }
      ],
      "name": "tokenURI",
      "outputs": [
        {
          "internalType": "string",
          "name": "",
          "type": "string"
        }
      ],
      "stateMutability": "view",
      "type": "function"
    },
    {
      "inputs": [],
      "name": "totalSupply",
      "outputs": [
        {
          "internalType": "uint256",
          "name": "",
          "type": "uint256"
        }
      ],
      "stateMutability": "view",
      "type": "function"
    },
    {
      "inputs": [
        {
          "internalType": "address",
          "name": "from",
          "type": "address"
        },
        {
          "internalType": "address",
          "name": "to",
          "type": "address"
        },
        {
          "internalType": "uint256",
          "name": "tokenId",
          "type": "uint256"
        }
      ],
      "name": "transferFrom",
      "outputs": [],
      "stateMutability": "nonpayable",
      "type": "function"
    },
    {
      "inputs": [
        {
          "internalType": "address",
          "name": "owner",
          "type": "address"
        },
        {
          "internalType": "uint256",
          "name": "taskId",
          "type": "uint256"
        }
      ],
      "name": "verifyTask",
      "outputs": [],
      "stateMutability": "nonpayable",
      "type": "function"
    }
  ],
  "bytecode": "0x60806040523480156200001157600080fd5b506040518060400160405280600e81526020017f4c6162656c6c657373205461736b0000000000000000000000000000000000008152506040518060400160405280600581526020017f4c4c54534b000000000000000000000000000000000000000000000000000000815250620000966301ffc9a760e01b6200011860201b60201c565b8160069080519060200190620000ae92919062000221565b508060079080519060200190620000c792919062000221565b50620000e06380ac58cd60e01b6200011860201b60201c565b620000f8635b5e139f60e01b6200011860201b60201c565b6200011063780e9d6360e01b6200011860201b60201c565b5050620002c7565b63ffffffff60e01b817bffffffffffffffffffffffffffffffffffffffffffffffffffffffff19161415620001b5576040517f08c379a000000000000000000000000000000000000000000000000000000000815260040180806020018281038252601c8152602001807f4552433136353a20696e76616c696420696e746572666163652069640000000081525060200191505060405180910390fd5b6001600080837bffffffffffffffffffffffffffffffffffffffffffffffffffffffff19167bffffffffffffffffffffffffffffffffffffffffffffffffffffffff1916815260200190815260200160002060006101000a81548160ff02191690831515021790555050565b828054600181600116156101000203166002900490600052602060002090601f016020900481019282601f106200026457805160ff191683800117855562000295565b8280016001018555821562000295579182015b828111156200029457825182559160200191906001019062000277565b5b509050620002a49190620002a8565b5090565b5b80821115620002c3576000816000905550600101620002a9565b5090565b61336480620002d76000396000f3fe608060405234801561001057600080fd5b506004361061014d5760003560e01c806357dabe3d116100c357806395d89b411161007c57806395d89b4114610904578063a22cb46514610987578063b06c82d8146109d7578063b88d4fde14610a25578063c87b56dd14610b2a578063e985e9c514610bd15761014d565b806357dabe3d146106505780636352211e1461073557806369c85d591461078d5780636c0360eb146107db57806370a082311461085e5780637783ec3f146108b65761014d565b806323b872dd1161011557806323b872dd146102fc578063265e38c11461036a5780632f745c59146103b857806342842e0e1461041a5780634f6ccce714610488578063540e08a3146104ca5761014d565b806301ffc9a71461015257806306fdde03146101b5578063081812fc14610238578063095ea7b31461029057806318160ddd146102de575b600080fd5b61019d6004803603602081101561016857600080fd5b8101908080357bffffffffffffffffffffffffffffffffffffffffffffffffffffffff19169060200190929190505050610c4b565b60405180821515815260200191505060405180910390f35b6101bd610cb2565b6040518080602001828103825283818151815260200191508051906020019080838360005b838110156101fd5780820151818401526020810190506101e2565b50505050905090810190601f16801561022a5780820380516001836020036101000a031916815260200191505b509250505060405180910390f35b6102646004803603602081101561024e57600080fd5b8101908080359060200190929190505050610d54565b604051808273ffffffffffffffffffffffffffffffffffffffff16815260200191505060405180910390f35b6102dc600480360360408110156102a657600080fd5b81019080803573ffffffffffffffffffffffffffffffffffffffff16906020019092919080359060200190929190505050610def565b005b6102e6610f33565b6040518082815260200191505060405180910390f35b6103686004803603606081101561031257600080fd5b81019080803573ffffffffffffffffffffffffffffffffffffffff169060200190929190803573ffffffffffffffffffffffffffffffffffffffff16906020019092919080359060200190929190505050610f44565b005b6103b66004803603604081101561038057600080fd5b81019080803573ffffffffffffffffffffffffffffffffffffffff16906020019092919080359060200190929190505050610fba565b005b610404600480360360408110156103ce57600080fd5b81019080803573ffffffffffffffffffffffffffffffffffffffff16906020019092919080359060200190929190505050611072565b6040518082815260200191505060405180910390f35b6104866004803603606081101561043057600080fd5b81019080803573ffffffffffffffffffffffffffffffffffffffff169060200190929190803573ffffffffffffffffffffffffffffffffffffffff169060200190929190803590602001909291905050506110cd565b005b6104b46004803603602081101561049e57600080fd5b81019080803590602001909291905050506110ed565b6040518082815260200191505060405180910390f35b61063a600480360360608110156104e057600080fd5b81019080803573ffffffffffffffffffffffffffffffffffffffff1690602001909291908035906020019064010000000081111561051d57600080fd5b82018360208201111561052f57600080fd5b8035906020019184600183028401116401000000008311171561055157600080fd5b91908080601f016020809104026020016040519081016040528093929190818152602001838380828437600081840152601f19601f820116905080830192505050505050509192919290803590602001906401000000008111156105b457600080fd5b8201836020820111156105c657600080fd5b803590602001918460018302840111640100000000831117156105e857600080fd5b91908080601f016020809104026020016040519081016040528093929190818152602001838380828437600081840152601f19601f820116905080830192505050505050509192919290505050611110565b6040518082815260200191505060405180910390f35b6107336004803603606081101561066657600080fd5b81019080803573ffffffffffffffffffffffffffffffffffffffff16906020019092919080359060200190929190803590602001906401000000008111156106ad57600080fd5b8201836020820111156106bf57600080fd5b803590602001918460018302840111640100000000831117156106e157600080fd5b91908080601f016020809104026020016040519081016040528093929190818152602001838380828437600081840152601f19601f8201169050808301925050505050505091929192905050506111cd565b005b6107616004803603602081101561074b57600080fd5b81019080803590602001909291905050506112d6565b604051808273ffffffffffffffffffffffffffffffffffffffff16815260200191505060405180910390f35b6107d9600480360360408110156107a357600080fd5b81019080803573ffffffffffffffffffffffffffffffffffffffff1690602001909291908035906020019092919050505061130d565b005b6107e36113a4565b6040518080602001828103825283818151815260200191508051906020019080838360005b83811015610823578082015181840152602081019050610808565b50505050905090810190601f1680156108505780820380516001836020036101000a031916815260200191505b509250505060405180910390f35b6108a06004803603602081101561087457600080fd5b81019080803573ffffffffffffffffffffffffffffffffffffffff169060200190929190505050611446565b6040518082815260200191505060405180910390f35b610902600480360360408110156108cc57600080fd5b81019080803573ffffffffffffffffffffffffffffffffffffffff1690602001909291908035906020019092919050505061151b565b005b61090c6116a8565b6040518080602001828103825283818151815260200191508051906020019080838360005b8381101561094c578082015181840152602081019050610931565b50505050905090810190601f1680156109795780820380516001836020036101000a031916815260200191505b509250505060405180910390f35b6109d56004803603604081101561099d57600080fd5b81019080803573ffffffffffffffffffffffffffffffffffffffff16906020019092919080351515906020019092919050505061174a565b005b610a23600480360360408110156109ed57600080fd5b81019080803573ffffffffffffffffffffffffffffffffffffffff16906020019092919080359060200190929190505050611900565b005b610b2860048036036080811015610a3b57600080fd5b81019080803573ffffffffffffffffffffffffffffffffffffffff169060200190929190803573ffffffffffffffffffffffffffffffffffffffff1690602001909291908035906020019092919080359060200190640100000000811115610aa257600080fd5b820183602082011115610ab457600080fd5b80359060200191846001830284011164010000000083111715610ad657600080fd5b91908080601f016020809104026020016040519081016040528093929190818152602001838380828437600081840152601f19601f820116905080830192505050505050509192919290505050611997565b005b610b5660048036036020811015610b4057600080fd5b8101908080359060200190929190505050611a0f565b6040518080602001828103825283818151815260200191508051906020019080838360005b83811015610b96578082015181840152602081019050610b7b565b50505050905090810190601f168015610bc35780820380516001836020036101000a031916815260200191505b509250505060405180910390f35b610c3360048036036040811015610be757600080fd5b81019080803573ffffffffffffffffffffffffffffffffffffffff169060200190929190803573ffffffffffffffffffffffffffffffffffffffff169060200190929190505050611cf8565b60405180821515815260200191505060405180910390f35b6000806000837bffffffffffffffffffffffffffffffffffffffffffffffffffffffff19167bffffffffffffffffffffffffffffffffffffffffffffffffffffffff1916815260200190815260200160002060009054906101000a900460ff169050919050565b606060068054600181600116156101000203166002900480601f016020809104026020016040519081016040528092919081815260200182805460018160011615610100020316600290048015610d4a5780601f10610d1f57610100808354040283529160200191610d4a565b820191906000526020600020905b815481529060010190602001808311610d2d57829003601f168201915b5050505050905090565b6000610d5f82611d8c565b610db4576040517f08c379a000000000000000000000000000000000000000000000000000000000815260040180806020018281038252602c815260200180613238602c913960400191505060405180910390fd5b6004600083815260200190815260200160002060009054906101000a900473ffffffffffffffffffffffffffffffffffffffff169050919050565b6000610dfa826112d6565b90508073ffffffffffffffffffffffffffffffffffffffff168373ffffffffffffffffffffffffffffffffffffffff161415610e81576040517f08c379a00000000000000000000000000000000000000000000000000000000081526004018080602001828103825260218152602001806132dd6021913960400191505060405180910390fd5b8073ffffffffffffffffffffffffffffffffffffffff16610ea0611da9565b73ffffffffffffffffffffffffffffffffffffffff161480610ecf5750610ece81610ec9611da9565b611cf8565b5b610f24576040517f08c379a00000000000000000000000000000000000000000000000000000000081526004018080602001828103825260388152602001806131586038913960400191505060405180910390fd5b610f2e8383611db1565b505050565b6000610f3f6002611e6a565b905090565b610f55610f4f611da9565b82611e7f565b610faa576040517f08c379a00000000000000000000000000000000000000000000000000000000081526004018080602001828103825260318152602001806132fe6031913960400191505060405180910390fd5b610fb5838383611f73565b505050565b6000610fc533611446565b1461101b576040517f08c379a00000000000000000000000000000000000000000000000000000000081526004018080602001828103825260218152602001806132bc6021913960400191505060405180910390fd5b611036823383604051806020016040528060008152506121b6565b6003600b600083815260200190815260200160002060030160006101000a81548160ff0219169083600581111561106957fe5b02179055505050565b60006110c582600160008673ffffffffffffffffffffffffffffffffffffffff1673ffffffffffffffffffffffffffffffffffffffff16815260200190815260200160002061222890919063ffffffff16565b905092915050565b6110e883838360405180602001604052806000815250611997565b505050565b60008061110483600261224290919063ffffffff16565b50905080915050919050565b600061111c600a61226e565b6000611128600a612284565b90506111348582612292565b82600b6000838152602001908152602001600020600001908051906020019061115e929190612ff0565b5083600b60008381526020019081526020016000206001019080519060200190611189929190612ff0565b506000600b600083815260200190815260200160002060030160006101000a81548160ff021916908360058111156111bd57fe5b0217905550809150509392505050565b3373ffffffffffffffffffffffffffffffffffffffff166111ed836112d6565b73ffffffffffffffffffffffffffffffffffffffff161461120d57600080fd5b6001600581111561121a57fe5b600b600084815260200190815260200160002060030160009054906101000a900460ff16600581111561124957fe5b1461125357600080fd5b80600b6000848152602001908152602001600020600201908051906020019061127d929190612ff0565b50611299338484604051806020016040528060008152506121b6565b6002600b600084815260200190815260200160002060030160006101000a81548160ff021916908360058111156112cc57fe5b0217905550505050565b6000611306826040518060600160405280602981526020016131ba6029913960026124869092919063ffffffff16565b9050919050565b3373ffffffffffffffffffffffffffffffffffffffff1661132d826112d6565b73ffffffffffffffffffffffffffffffffffffffff161461134d57600080fd5b611368338383604051806020016040528060008152506121b6565b6005600b600083815260200190815260200160002060030160006101000a81548160ff0219169083600581111561139b57fe5b02179055505050565b606060098054600181600116156101000203166002900480601f01602080910402602001604051908101604052809291908181526020018280546001816001161561010002031660029004801561143c5780601f106114115761010080835404028352916020019161143c565b820191906000526020600020905b81548152906001019060200180831161141f57829003601f168201915b5050505050905090565b60008073ffffffffffffffffffffffffffffffffffffffff168273ffffffffffffffffffffffffffffffffffffffff1614156114cd576040517f08c379a000000000000000000000000000000000000000000000000000000000815260040180806020018281038252602a815260200180613190602a913960400191505060405180910390fd5b611514600160008473ffffffffffffffffffffffffffffffffffffffff1673ffffffffffffffffffffffffffffffffffffffff1681526020019081526020016000206124a5565b9050919050565b600061152633611446565b1461157c576040517f08c379a00000000000000000000000000000000000000000000000000000000081526004018080602001828103825260218152602001806132bc6021913960400191505060405180910390fd5b6000600581111561158957fe5b600b600083815260200190815260200160002060030160009054906101000a900460ff1660058111156115b857fe5b14806115fc57506005808111156115cb57fe5b600b600083815260200190815260200160002060030160009054906101000a900460ff1660058111156115fa57fe5b145b611651576040517f08c379a00000000000000000000000000000000000000000000000000000000081526004018080602001828103825260338152602001806131e36033913960400191505060405180910390fd5b61166c823383604051806020016040528060008152506121b6565b6001600b600083815260200190815260200160002060030160006101000a81548160ff0219169083600581111561169f57fe5b02179055505050565b606060078054600181600116156101000203166002900480601f0160208091040260200160405190810160405280929190818152602001828054600181600116156101000203166002900480156117405780601f1061171557610100808354040283529160200191611740565b820191906000526020600020905b81548152906001019060200180831161172357829003601f168201915b5050505050905090565b611752611da9565b73ffffffffffffffffffffffffffffffffffffffff168273ffffffffffffffffffffffffffffffffffffffff1614156117f3576040517f08c379a00000000000000000000000000000000000000000000000000000000081526004018080602001828103825260198152602001807f4552433732313a20617070726f766520746f2063616c6c65720000000000000081525060200191505060405180910390fd5b8060056000611800611da9565b73ffffffffffffffffffffffffffffffffffffffff1673ffffffffffffffffffffffffffffffffffffffff16815260200190815260200160002060008473ffffffffffffffffffffffffffffffffffffffff1673ffffffffffffffffffffffffffffffffffffffff16815260200190815260200160002060006101000a81548160ff0219169083151502179055508173ffffffffffffffffffffffffffffffffffffffff166118ad611da9565b73ffffffffffffffffffffffffffffffffffffffff167f17307eab39ab6107e8899845ad3d59bd9653f200f220920489ca2b5937696c318360405180821515815260200191505060405180910390a35050565b3373ffffffffffffffffffffffffffffffffffffffff16611920826112d6565b73ffffffffffffffffffffffffffffffffffffffff161461194057600080fd5b61195b338383604051806020016040528060008152506121b6565b6004600b600083815260200190815260200160002060030160006101000a81548160ff0219169083600581111561198e57fe5b02179055505050565b6119a86119a2611da9565b83611e7f565b6119fd576040517f08c379a00000000000000000000000000000000000000000000000000000000081526004018080602001828103825260318152602001806132fe6031913960400191505060405180910390fd5b611a09848484846121b6565b50505050565b6060611a1a82611d8c565b611a6f576040517f08c379a000000000000000000000000000000000000000000000000000000000815260040180806020018281038252602f81526020018061328d602f913960400191505060405180910390fd5b6060600860008481526020019081526020016000208054600181600116156101000203166002900480601f016020809104026020016040519081016040528092919081815260200182805460018160011615610100020316600290048015611b185780601f10611aed57610100808354040283529160200191611b18565b820191906000526020600020905b815481529060010190602001808311611afb57829003601f168201915b50505050509050600060098054600181600116156101000203166002900490501415611b475780915050611cf3565b600081511115611c20576009816040516020018083805460018160011615610100020316600290048015611bb25780601f10611b90576101008083540402835291820191611bb2565b820191906000526020600020905b815481529060010190602001808311611b9e575b505082805190602001908083835b60208310611be35780518252602082019150602081019050602083039250611bc0565b6001836020036101000a03801982511681845116808217855250505050505090500192505050604051602081830303815290604052915050611cf3565b6009611c2b846124ba565b6040516020018083805460018160011615610100020316600290048015611c895780601f10611c67576101008083540402835291820191611c89565b820191906000526020600020905b815481529060010190602001808311611c75575b505082805190602001908083835b60208310611cba5780518252602082019150602081019050602083039250611c97565b6001836020036101000a038019825116818451168082178552505050505050905001925050506040516020818303038152906040529150505b919050565b6000600560008473ffffffffffffffffffffffffffffffffffffffff1673ffffffffffffffffffffffffffffffffffffffff16815260200190815260200160002060008373ffffffffffffffffffffffffffffffffffffffff1673ffffffffffffffffffffffffffffffffffffffff16815260200190815260200160002060009054906101000a900460ff16905092915050565b6000611da282600261260190919063ffffffff16565b9050919050565b600033905090565b816004600083815260200190815260200160002060006101000a81548173ffffffffffffffffffffffffffffffffffffffff021916908373ffffffffffffffffffffffffffffffffffffffff160217905550808273ffffffffffffffffffffffffffffffffffffffff16611e24836112d6565b73ffffffffffffffffffffffffffffffffffffffff167f8c5be1e5ebec7d5bd14f71427d1e84f3dd0314c0f7b2291e5b200ac8c7c3b92560405160405180910390a45050565b6000611e788260000161261b565b9050919050565b6000611e8a82611d8c565b611edf576040517f08c379a000000000000000000000000000000000000000000000000000000000815260040180806020018281038252602c81526020018061312c602c913960400191505060405180910390fd5b6000611eea836112d6565b90508073ffffffffffffffffffffffffffffffffffffffff168473ffffffffffffffffffffffffffffffffffffffff161480611f5957508373ffffffffffffffffffffffffffffffffffffffff16611f4184610d54565b73ffffffffffffffffffffffffffffffffffffffff16145b80611f6a5750611f698185611cf8565b5b91505092915050565b8273ffffffffffffffffffffffffffffffffffffffff16611f93826112d6565b73ffffffffffffffffffffffffffffffffffffffff1614611fff576040517f08c379a00000000000000000000000000000000000000000000000000000000081526004018080602001828103825260298152602001806132646029913960400191505060405180910390fd5b600073ffffffffffffffffffffffffffffffffffffffff168273ffffffffffffffffffffffffffffffffffffffff161415612085576040517f08c379a00000000000000000000000000000000000000000000000000000000081526004018080602001828103825260248152602001806130e26024913960400191505060405180910390fd5b61209083838361262c565b61209b600082611db1565b6120ec81600160008673ffffffffffffffffffffffffffffffffffffffff1673ffffffffffffffffffffffffffffffffffffffff16815260200190815260200160002061263190919063ffffffff16565b5061213e81600160008573ffffffffffffffffffffffffffffffffffffffff1673ffffffffffffffffffffffffffffffffffffffff16815260200190815260200160002061264b90919063ffffffff16565b50612155818360026126659092919063ffffffff16565b50808273ffffffffffffffffffffffffffffffffffffffff168473ffffffffffffffffffffffffffffffffffffffff167fddf252ad1be2c89b69c2b068fc378daa952ba7f163c4a11628f55a4df523b3ef60405160405180910390a4505050565b6121c1848484611f73565b6121cd8484848461269a565b612222576040517f08c379a00000000000000000000000000000000000000000000000000000000081526004018080602001828103825260328152602001806130b06032913960400191505060405180910390fd5b50505050565b600061223783600001836128b3565b60001c905092915050565b6000806000806122558660000186612936565b915091508160001c8160001c9350935050509250929050565b6001816000016000828254019250508190555050565b600081600001549050919050565b600073ffffffffffffffffffffffffffffffffffffffff168273ffffffffffffffffffffffffffffffffffffffff161415612335576040517f08c379a00000000000000000000000000000000000000000000000000000000081526004018080602001828103825260208152602001807f4552433732313a206d696e7420746f20746865207a65726f206164647265737381525060200191505060405180910390fd5b61233e81611d8c565b156123b1576040517f08c379a000000000000000000000000000000000000000000000000000000000815260040180806020018281038252601c8152602001807f4552433732313a20746f6b656e20616c7265616479206d696e7465640000000081525060200191505060405180910390fd5b6123bd6000838361262c565b61240e81600160008573ffffffffffffffffffffffffffffffffffffffff1673ffffffffffffffffffffffffffffffffffffffff16815260200190815260200160002061264b90919063ffffffff16565b50612425818360026126659092919063ffffffff16565b50808273ffffffffffffffffffffffffffffffffffffffff16600073ffffffffffffffffffffffffffffffffffffffff167fddf252ad1be2c89b69c2b068fc378daa952ba7f163c4a11628f55a4df523b3ef60405160405180910390a45050565b6000612499846000018460001b846129cf565b60001c90509392505050565b60006124b382600001612ac5565b9050919050565b60606000821415612502576040518060400160405280600181526020017f300000000000000000000000000000000000000000000000000000000000000081525090506125fc565b600082905060005b6000821461252c578080600101915050600a828161252457fe5b04915061250a565b60608167ffffffffffffffff8111801561254557600080fd5b506040519080825280601f01601f1916602001820160405280156125785781602001600182028036833780820191505090505b50905060006001830390508593505b600084146125f457600a848161259957fe5b0660300160f81b828280600190039350815181106125b357fe5b60200101907effffffffffffffffffffffffffffffffffffffffffffffffffffffffffffff1916908160001a905350600a84816125ec57fe5b049350612587565b819450505050505b919050565b6000612613836000018360001b612ad6565b905092915050565b600081600001805490509050919050565b505050565b6000612643836000018360001b612af9565b905092915050565b600061265d836000018360001b612be1565b905092915050565b6000612691846000018460001b8473ffffffffffffffffffffffffffffffffffffffff1660001b612c51565b90509392505050565b60006126bb8473ffffffffffffffffffffffffffffffffffffffff16612d2d565b6126c857600190506128ab565b606061283263150b7a0260e01b6126dd611da9565b888787604051602401808573ffffffffffffffffffffffffffffffffffffffff1681526020018473ffffffffffffffffffffffffffffffffffffffff16815260200183815260200180602001828103825283818151815260200191508051906020019080838360005b83811015612761578082015181840152602081019050612746565b50505050905090810190601f16801561278e5780820380516001836020036101000a031916815260200191505b5095505050505050604051602081830303815290604052907bffffffffffffffffffffffffffffffffffffffffffffffffffffffff19166020820180517bffffffffffffffffffffffffffffffffffffffffffffffffffffffff83818316178352505050506040518060600160405280603281526020016130b0603291398773ffffffffffffffffffffffffffffffffffffffff16612d409092919063ffffffff16565b9050600081806020019051602081101561284b57600080fd5b8101908080519060200190929190505050905063150b7a0260e01b7bffffffffffffffffffffffffffffffffffffffffffffffffffffffff1916817bffffffffffffffffffffffffffffffffffffffffffffffffffffffff191614925050505b949350505050565b600081836000018054905011612914576040517f08c379a000000000000000000000000000000000000000000000000000000000815260040180806020018281038252602281526020018061308e6022913960400191505060405180910390fd5b82600001828154811061292357fe5b9060005260206000200154905092915050565b60008082846000018054905011612998576040517f08c379a00000000000000000000000000000000000000000000000000000000081526004018080602001828103825260228152602001806132166022913960400191505060405180910390fd5b60008460000184815481106129a957fe5b906000526020600020906002020190508060000154816001015492509250509250929050565b60008084600101600085815260200190815260200160002054905060008114158390612a96576040517f08c379a00000000000000000000000000000000000000000000000000000000081526004018080602001828103825283818151815260200191508051906020019080838360005b83811015612a5b578082015181840152602081019050612a40565b50505050905090810190601f168015612a885780820380516001836020036101000a031916815260200191505b509250505060405180910390fd5b50846000016001820381548110612aa957fe5b9060005260206000209060020201600101549150509392505050565b600081600001805490509050919050565b600080836001016000848152602001908152602001600020541415905092915050565b60008083600101600084815260200190815260200160002054905060008114612bd55760006001820390506000600186600001805490500390506000866000018281548110612b4457fe5b9060005260206000200154905080876000018481548110612b6157fe5b9060005260206000200181905550600183018760010160008381526020019081526020016000208190555086600001805480612b9957fe5b60019003818190600052602060002001600090559055866001016000878152602001908152602001600020600090556001945050505050612bdb565b60009150505b92915050565b6000612bed8383612d58565b612c46578260000182908060018154018082558091505060019003906000526020600020016000909190919091505582600001805490508360010160008481526020019081526020016000208190555060019050612c4b565b600090505b92915050565b6000808460010160008581526020019081526020016000205490506000811415612cf857846000016040518060400160405280868152602001858152509080600181540180825580915050600190039060005260206000209060020201600090919091909150600082015181600001556020820151816001015550508460000180549050856001016000868152602001908152602001600020819055506001915050612d26565b82856000016001830381548110612d0b57fe5b90600052602060002090600202016001018190555060009150505b9392505050565b600080823b905060008111915050919050565b6060612d4f8484600085612d7b565b90509392505050565b600080836001016000848152602001908152602001600020541415905092915050565b606082471015612dd6576040517f08c379a00000000000000000000000000000000000000000000000000000000081526004018080602001828103825260268152602001806131066026913960400191505060405180910390fd5b612ddf85612d2d565b612e51576040517f08c379a000000000000000000000000000000000000000000000000000000000815260040180806020018281038252601d8152602001807f416464726573733a2063616c6c20746f206e6f6e2d636f6e747261637400000081525060200191505060405180910390fd5b600060608673ffffffffffffffffffffffffffffffffffffffff1685876040518082805190602001908083835b60208310612ea15780518252602082019150602081019050602083039250612e7e565b6001836020036101000a03801982511681845116808217855250505050505090500191505060006040518083038185875af1925050503d8060008114612f03576040519150601f19603f3d011682016040523d82523d6000602084013e612f08565b606091505b5091509150612f18828286612f24565b92505050949350505050565b60608315612f3457829050612fe9565b600083511115612f475782518084602001fd5b816040517f08c379a00000000000000000000000000000000000000000000000000000000081526004018080602001828103825283818151815260200191508051906020019080838360005b83811015612fae578082015181840152602081019050612f93565b50505050905090810190601f168015612fdb5780820380516001836020036101000a031916815260200191505b509250505060405180910390fd5b9392505050565b828054600181600116156101000203166002900490600052602060002090601f016020900481019282601f1061303157805160ff191683800117855561305f565b8280016001018555821561305f579182015b8281111561305e578251825591602001919060010190613043565b5b50905061306c9190613070565b5090565b5b80821115613089576000816000905550600101613071565b509056fe456e756d657261626c655365743a20696e646578206f7574206f6620626f756e64734552433732313a207472616e7366657220746f206e6f6e20455243373231526563656976657220696d706c656d656e7465724552433732313a207472616e7366657220746f20746865207a65726f2061646472657373416464726573733a20696e73756666696369656e742062616c616e636520666f722063616c6c4552433732313a206f70657261746f7220717565727920666f72206e6f6e6578697374656e7420746f6b656e4552433732313a20617070726f76652063616c6c6572206973206e6f74206f776e6572206e6f7220617070726f76656420666f7220616c6c4552433732313a2062616c616e636520717565727920666f7220746865207a65726f20616464726573734552433732313a206f776e657220717565727920666f72206e6f6e6578697374656e7420746f6b656e5461736b206d75737420626520696e20544f444f206f722052454a454354454420737461746520746f2062652074616b656e2e456e756d657261626c654d61703a20696e646578206f7574206f6620626f756e64734552433732313a20617070726f76656420717565727920666f72206e6f6e6578697374656e7420746f6b656e4552433732313a207472616e73666572206f6620746f6b656e2074686174206973206e6f74206f776e4552433732314d657461646174613a2055524920717565727920666f72206e6f6e6578697374656e7420746f6b656e53656e6465722068617320616c726164792074616b656e206f6e65207461736b2e4552433732313a20617070726f76616c20746f2063757272656e74206f776e65724552433732313a207472616e736665722063616c6c6572206973206e6f74206f776e6572206e6f7220617070726f766564a2646970667358221220afcd6913d2f5ac8710452c4ebdf39c6c4bde4c4f9a5c06c7f5c16d4acf132c9664736f6c63430007030033",
  "linkReferences": {},
  "deployedLinkReferences": {}
}